:020000040800F2
:1000000000500020FD12000899120008A1120008FB
:10001000A9120008B1120008B9120008000000007F
:10002000000000000000000000000000C1120008F5
:10003000CD12000800000000D9120008E5120008E7
:100040004513000845130008451300084513000830
:100050004513000845130008451300084513000820
:100060004513000845130008451300084513000810
:100070004513000845130008451300084513000800
:1000800045130008451300084513000845130008F0
:1000900045130008451300084513000845130008E0
:1000A00045130008451300084513000845130008D0
:1000B00045130008451300084513000845130008C0
:1000C00045130008451300084513000845130008B0
:1000D00045130008451300084513000845130008A0
:1000E00045130008451300084513000800000000F0
:1000F0000000000000000000000000000000000000
:0C01000000000000000000005FF808F1A3
:1001100010B5054C237833B9044B13B10448AFF341
:1001200000800123237010BD0C000020000000009F
:10013000B434000808B5034B1BB103490348AFF3BF
:10014000008008BD0000000010000020B43400084A
:1001500081F0004102E000BF83F0004330B54FEA78
:1001600041044FEA430594EA050F08BF90EA020FE5
:100170001FBF54EA000C55EA020C7FEA645C7FEA78
:10018000655C00F0E2804FEA5454D4EB5555B8BF9B
:100190006D420CDD2C4480EA020281EA030382EA0C
:1001A000000083EA010180EA020281EA0303362D9E
:1001B00088BF30BD11F0004F4FEA01314FF4801C71
:1001C0004CEA113102D0404261EB410113F0004F83
:1001D0004FEA03334CEA133302D0524263EB43033A
:1001E00094EA050F00F0A780A4F10104D5F1200ED8
:1001F0000DDB02FA0EFC22FA05F2801841F1000133
:1002000003FA0EF2801843FA05F359410EE0A5F106
:1002100020050EF1200E012A03FA0EFC28BF4CF037
:10022000020C43FA05F3C01851EBE37101F00045ED
:1002300007D54FF0000EDCF1000C7EEB00006EEBFA
:100240000101B1F5801F1BD3B1F5001F0CD3490884
:100250005FEA30004FEA3C0C04F101044FEA4452DB
:1002600012F5800F80F09A80BCF1004F08BF5FEA62
:10027000500C50F1000041EB045141EA050130BD42
:100280005FEA4C0C404141EB0101013C28BFB1F554
:10029000801FE9D291F0000F04BF01460020B1FA9F
:1002A00081F308BF2033A3F10B03B3F120020CDA72
:1002B0000C3208DD02F1140CC2F10C0201FA0CF050
:1002C00021FA02F10CE002F11402D8BFC2F1200CB5
:1002D00001FA02F120FA0CFCDCBF41EA0C0190406B
:1002E000E41AA2BF01EB0451294330BD6FEA0404B4
:1002F0001F3C1CDA0C340EDC04F11404C4F120029F
:1003000020FA04F001FA02F340EA030021FA04F3B0
:1003100045EA030130BDC4F10C04C4F1200220FA07
:1003200002F001FA04F340EA0300294630BD21FA45
:1003300004F0294630BD94F0000F83F4801306BF0B
:1003400081F480110134013D4EE77FEA645C18BFFF
:100350007FEA655C29D094EA050F08BF90EA020F96
:1003600005D054EA000C04BF1946104630BD91EA8E
:10037000030F1EBF0021002030BD5FEA545C05D191
:100380004000494128BF41F0004130BD14F58004D0
:100390003CBF01F5801130BD01F0004545F0FE4144
:1003A00041F470014FF0000030BD7FEA645C1ABF79
:1003B000194610467FEA655C1CBF0B46024650EAB0
:1003C000013406BF52EA033591EA030F41F40021DC
:1003D00030BD00BF90F0000F04BF0021704730B562
:1003E0004FF4806404F132044FF000054FF0000137
:1003F00050E700BF90F0000F04BF0021704730B5F8
:100400004FF4806404F1320410F0004548BF4042CC
:100410004FF000013EE700BF42004FEAE2014FEA21
:1004200031014FEA02701FBF12F07F4393F07F4FFC
:1004300081F06051704732F07F4208BF704793F0FF
:100440007F4F04BF41F40021704730B54FF4607412
:1004500001F0004521F000411CE700BF50EA010215
:1004600008BF704730B54FF000050AE050EA0102BE
:1004700008BF704730B511F0004502D5404261EB2E
:1004800041014FF4806404F132045FEA915C3FF46F
:10049000D8AE4FF003025FEADC0C18BF03325FEA0C
:1004A000DC0C18BF033202EBDC02C2F1200300FABD
:1004B00003FC20FA02F001FA03FE40EA0E0021FAE2
:1004C00002F11444BDE600BF4FF0FF3C06E000BF60
:1004D0004FF0010C02E000BF4FF0010C4DF804CDCD
:1004E0004FEA410C7FEA6C5C4FEA430C18BF7FEA8D
:1004F0006C5C1BD001B050EA410C0CBF52EA430CBB
:1005000091EA030F02BF90EA020F0020704710F13A
:10051000000F91EA030F58BF994208BF90422CBFC9
:10052000D8176FEAE37040F0010070474FEA410CC2
:100530007FEA6C5C02D150EA013C07D14FEA430CE0
:100540007FEA6C5CD6D152EA033CD3D05DF8040B51
:10055000704700BF8446104662468C461946634683
:1005600000E000BF01B5FFF7B7FF002848BF10F15A
:10057000000F01BD4DF808EDFFF7F4FF0CBF01209F
:1005800000205DF808FB00BF4DF808EDFFF7EAFF1B
:1005900034BF012000205DF808FB00BF4DF808EDD6
:1005A000FFF7E0FF94BF012000205DF808FB00BFCB
:1005B0004DF808EDFFF7CEFF94BF012000205DF855
:1005C00008FB00BF4DF808EDFFF7C4FF34BF012062
:1005D00000205DF808FB00BF4FEA4102B2F1E043A2
:1005E00024BFB3F5001CDCF1FE5C0DD901F0004C1A
:1005F0004FEAC0024CEA5070B2F1004F40EB83006A
:1006000008BF20F00100704711F0804F21D113F195
:100610003872BCBF01F00040704741F480114FEACE
:100620005252C2F11802C2F1200C10FA0CF320FA57
:1006300002F018BF40F001004FEAC1234FEAD32374
:1006400003FA0CFC40EA0C0023FA02F34FEA4303DE
:10065000CCE77FEA625307D150EA01331EBF4FF067
:10066000FE4040F44000704701F0004040F0FE4082
:1006700040F40000704700BF80F0004002E000BF7F
:1006800081F0004142001FBF5FEA410392EA030F7D
:100690007FEA226C7FEA236C6AD04FEA1262D2EBC7
:1006A0001363C1BFD218414048404140B8BF5B42CC
:1006B000192B88BF704710F0004F40F4000020F065
:1006C0007F4018BF404211F0004F41F4000121F07B
:1006D0007F4118BF494292EA030F3FD0A2F10102C5
:1006E00041FA03FC10EB0C00C3F1200301FA03F103
:1006F00000F0004302D5494260EB4000B0F5000F26
:1007000013D3B0F1807F06D340084FEA310102F1E4
:100710000102FE2A51D2B1F1004F40EBC25008BF96
:1007200020F0010040EA03007047490040EB000060
:10073000013A28BFB0F5000FEDD2B0FA80FCACF161
:10074000080CB2EB0C0200FA0CF0AABF00EBC2508E
:1007500052421843BCBFD0401843704792F0000F7C
:1007600081F4000106BF80F400000132013BB5E7CF
:100770004FEA41037FEA226C18BF7FEA236C21D045
:1007800092EA030F04D092F0000F08BF08467047AA
:1007900090EA010F1CBF0020704712F07F4F04D178
:1007A000400028BF40F00040704712F100723CBF8B
:1007B00000F50000704700F0004343F0FE4040F4B5
:1007C000000070477FEA226216BF08467FEA236373
:1007D0000146420206BF5FEA412390EA010F40F45E
:1007E000800070474FF0000304E000BF10F00043AA
:1007F00048BF40425FEA000C08BF704743F0964391
:1008000001464FF000001CE050EA010208BF7047AB
:100810004FF000030AE000BF50EA010208BF704732
:1008200011F0004302D5404261EB41015FEA010C47
:1008300002BF84460146002043F0B64308BFA3F13F
:100840008053A3F50003BCFA8CF2083AA3EBC25321
:1008500010DB01FA02FC634400FA02FCC2F1200240
:10086000BCF1004F20FA02F243EB020008BF20F077
:100870000100704702F1200201FA02FCC2F12002DD
:1008800050EA4C0021FA02F243EB020008BF20EAD2
:10089000DC7070474FF0FF0C1CEAD0521EBF1CEA00
:1008A000D15392EA0C0F93EA0C0F6FD01A4480EAEE
:1008B000010C400218BF5FEA41211ED04FF00063D7
:1008C00043EA501043EA5111A0FB01310CF0004003
:1008D000B1F5000F3EBF490041EAD3715B0040EA29
:1008E000010062F17F02FD2A1DD8B3F1004F40EBF9
:1008F000C25008BF20F00100704790F0000F0CF0CC
:10090000004C08BF49024CEA502040EA51207F3A8F
:10091000C2BFD2F1FF0340EAC250704740F400006A
:100920004FF00003013A5DDC12F1190FDCBF00F05B
:1009300000407047C2F10002410021FA02F1C2F109
:10094000200200FA02FC5FEA310040F1000053EAA5
:100950004C0308BF20EADC70704792F0000F00F0F3
:10096000004C02BF400010F4000F013AF9D040EAF9
:100970000C0093F0000F01F0004C02BF490011F48D
:10098000000F013BF9D041EA0C018FE70CEAD1538B
:1009900092EA0C0F18BF93EA0C0F0AD030F0004C0B
:1009A00018BF31F0004CD8D180EA010000F00040BF
:1009B000704790F0000F17BF90F0004F084691F07D
:1009C000000F91F0004F14D092EA0C0F01D14202B7
:1009D0000FD193EA0C0F03D14B0218BF084608D180
:1009E00080EA010000F0004040F0FE4040F40000CA
:1009F000704740F0FE4040F4400070474FF0FF0C5D
:100A00001CEAD0521EBF1CEAD15392EA0C0F93EAA3
:100A10000C0F69D0A2EB030280EA010C49024FEAF5
:100A2000402037D04FF0805343EA111143EA1013AE
:100A30000CF000408B4238BF5B0042F17D024FF466
:100A4000000C8B4224BF5B1A40EA0C00B3EB510F41
:100A500024BFA3EB510340EA5C00B3EB910F24BF2A
:100A6000A3EB910340EA9C00B3EBD10F24BFA3EBAF
:100A7000D10340EADC001B0118BF5FEA1C1CE0D177
:100A8000FD2A3FF650AF8B4240EBC25008BF20F02A
:100A9000010070470CF0004C4CEA50207F32C2BF7E
:100AA000D2F1FF0340EAC250704740F400004FF01B
:100AB0000003013A37E792F0000F00F0004C02BF4C
:100AC000400010F4000F013AF9D040EA0C0093F016
:100AD000000F01F0004C02BF490011F4000F013B70
:100AE000F9D041EA0C0195E70CEAD15392EA0C0FD8
:100AF00008D142027FF47DAF93EA0C0F7FF470AF10
:100B0000084676E793EA0C0F04D14B023FF44CAF52
:100B100008466EE730F0004C18BF31F0004CCAD1E7
:100B200030F000427FF45CAF31F000437FF43CAF23
:100B30005FE700BF4FF0FF3C06E000BF4FF0010C45
:100B400002E000BF4FF0010C4DF804CD4FEA400227
:100B50004FEA41037FEA226C18BF7FEA236C11D071
:100B600001B052EA530C18BF90EA010F58BFB2EB24
:100B7000030088BFC81738BF6FEAE17018BF40F0A4
:100B8000010070477FEA226C02D15FEA402C05D158
:100B90007FEA236CE4D15FEA412CE1D05DF8040BDD
:100BA000704700BF844608466146FFE70FB5FFF770
:100BB000C9FF002848BF10F1000F0FBD4DF808ED28
:100BC000FFF7F4FF0CBF012000205DF808FB00BF19
:100BD0004DF808EDFFF7EAFF34BF012000205DF873
:100BE00008FB00BF4DF808EDFFF7E0FF94BF0120C0
:100BF00000205DF808FB00BF4DF808EDFFF7D2FFBD
:100C000094BF012000205DF808FB00BF4DF808EDFF
:100C1000FFF7C8FF34BF012000205DF808FB00BFCC
:100C200042000ED2B2F1FE4F0BD34FF09E03B3EB56
:100C3000126209D44FEA002343F0004323FA02F082
:100C400070474FF00000704712F1610F01D142026E
:100C500002D14FF0FF3070474FF00000704700BFE7
:100C600080B500AF00F070FB00F04EF800F096F990
:100C700000F0E4F800F0A4F800211F4801F0A0FD06
:100C800000211D4802F078FA04211B4801F098FD6C
:100C90000421194802F070FA184B194A1A601AE038
:100CA000164B1B68184600F0A7F9052000F0AEFBB4
:100CB000124B1B681846FFF7AFFB0DA3D3E90023C7
:100CC000FFF74CFA02460B4610461946FFF784FC24
:100CD00003460A4A1360094B1B680A491846FFF786
:100CE00077FF0346002BDBD1D6E700BFAFF30080D0
:100CF0009A9999999999B93F58000020A00000202D
:100D00009A99A9400000C84180B594B000AF07F19E
:100D1000280328220021184602F09FFB07F1140344
:100D200000221A605A609A60DA601A613B1D002244
:100D30001A605A609A60DA600123BB624FF4803314
:100D4000FB6200233B630123BB6302237B644FF4FC
:100D50008033BB644FF4E013FB6407F128031846AB
:100D600000F0F2FF0346002B01D000F093F90F23AF
:100D70007B610223BB610023FB614FF480633B6214
:100D800000237B6207F114030221184601F05EFA8A
:100D90000346002B01D000F07DF902237B604FF465
:100DA0000043FB603B1D184601F0ACFB0346002BE3
:100DB00001D000F06FF900BF5037BD4680BD000084
:100DC00080B584B000AF3B1D00221A605A609A6063
:100DD000184B194A1A60174B00229A60154B0022D3
:100DE0001A73144B00221A75124B4FF46022DA6109
:100DF000104B00225A600F4B01221A610D4800F07F
:100E000029FB0346002B01D000F044F900237B604E
:100E10000123BB600023FB603B1D1946054800F021
:100E2000F1FB0346002B01D000F034F900BF10376E
:100E3000BD4680BD280000200024014080B596B04A
:100E400000AF07F1480300221A605A609A60DA6026
:100E500007F1400300221A605A6007F124030022C0
:100E60001A605A609A60DA601A615A619A613B1D91
:100E700020220021184602F0F0FA464B464A1A603A
:100E8000444B00225A60434B20229A60414B4FF45E
:100E90009662DA603F4B00221A613E4B00225A6193
:100EA0003C4B80229A613B4801F0E2FB0346002B59
:100EB00001D000F0EFF84FF48053BB6407F1480312
:100EC0001946344801F0E0FD0346002B01D000F044
:100ED000E1F8304801F01BFC0346002B01D000F084
:100EE000D9F800233B6400237B6407F140031946D3
:100EF000284802F0DFF90346002B01D000F0CAF8C1
:100F000060237B6240F24C43BB620023FB62002300
:100F10003B6300237B630023BB630023FB6307F178
:100F20002403002219461B4801F0ECFC0346002B69
:100F300001D000F0AFF86423BB6207F12403042260
:100F40001946144801F0DEFC0346002B01D000F0E6
:100F5000A1F800237B600023BB600023FB601E23FD
:100F60003B6100237B614FF40053BB6100233B6274
:100F70003B1D1946074802F0FBF90346002B01D040
:100F800000F088F8034800F039F900BF5837BD4633
:100F900080BD00BF58000020002C014080B485B007
:100FA00000AF144B9B69134A43F020039361114B2C
:100FB0009B6903F02003FB60FB680E4B9B690D4AA5
:100FC00043F0040393610B4B9B6903F00403BB6084
:100FD000BB68084B9B69074A43F008039361054BC4
:100FE0009B6903F008037B607B6800BF1437BD4634
:100FF00080BC70470010024090B587B000AF7860A9
:101000001F497868FFF702FE0346002B01D01C4BF6
:101010007B607868FFF700FA17A3D3E90023FFF796
:10102000B3FA0346002B01D0164B7B60164BDB68EE
:10103000FB8216497868FFF7E1FC03461C46FB8AF1
:101040001846FFF7D3FB034619462046FFF722FC5C
:1010500003463B613869FFF7E3FD0346FB81FA8AEB
:10106000FB89D21A0A4B5A63094AFB89936300BF72
:101070001C37BD4690BD00BF333333333333154087
:101080000000C8419A99A940580000200000C842B9
:10109000002C014080B400AF72B600BF00BFFDE776
:1010A00080B485B000AF154B9B69144A43F001032F
:1010B0009361124B9B6903F00103BB60BB680F4B4C
:1010C000DB690E4A43F08053D3610C4BDB6903F0BC
:1010D00080537B607B680A4B5B68FB60FB6823F096
:1010E000E063FB60FB6843F00073FB60044AFB684D
:1010F000536000BF1437BD4680BC704700100240EB
:101100000000014080B588B000AF786007F110039F
:1011100000221A605A609A60DA607B681B68144A81
:10112000934221D1134B9B69124A43F4007393619C
:10113000104B9B6903F40073FB60FB680D4B9B69CC
:101140000C4A43F0040393610A4B9B6903F00403C8
:10115000BB60BB6807233B6103237B6107F110037E
:101160001946054800F06CFC00BF2037BD4680BD25
:1011700000240140001002400008014080B588B002
:1011800000AF786007F1100300221A605A609A607D
:10119000DA607B681B68164A934224D1154B9B6921
:1011A000144A43F400639361124B9B6903F4006398
:1011B000FB60FB680F4B9B690E4A43F00803936189
:1011C0000C4B9B6903F00803BB60BB684FF4805372
:1011D0003B6100237B610023BB6107F110031946CB
:1011E000054800F02DFC00BF2037BD4680BD00BF84
:1011F000002C014000100240000C014080B588B076
:1012000000AF786007F1100300221A605A609A60FC
:10121000DA607B681B681C4A934231D11B4B9B6987
:101220001A4A43F008039361184B9B6903F00803C3
:10123000FB60FB68154B9B69144A43F00403936100
:10124000124B9B6903F00403BB60BB684FF4C043BF
:101250003B6102237B610223FB6107F11003194606
:101260000B4800F0EDFB4FF440733B6102237B61C0
:101270000223FB6107F110031946064800F0E0FB6A
:1012800000BF2037BD4680BD002C01400010024049
:10129000000C01400008014080B400AF00BFFDE732
:1012A00080B400AF00BFFDE780B400AF00BFFDE732
:1012B00080B400AF00BFFDE780B400AF00BFFDE722
:1012C00080B400AF00BFBD4680BC704780B400AFA3
:1012D00000BFBD4680BC704780B400AF00BFBD46B4
:1012E00080BC704780B500AF00F074F800BF80BDCF
:1012F00080B400AF00BFBD4680BC7047FFF7F8FF69
:101300000B480C490C4A002302E0D458C450043363
:10131000C4188C42F9D3094A094C002301E0136038
:101320000432A242FBD302F0A1F8FFF799FC704708
:10133000000000200C000020F83400080C00002001
:10134000A8000020FEE7000080B500AF084B1B6836
:10135000074A43F010031360032000F03DFB0F2009
:1013600000F008F8FFF79CFE0023184680BD00BF80
:101370000020024080B582B000AF7860124B1A683E
:10138000124B1B7819464FF47A73B3FBF1F3B2FB9F
:10139000F3F3184600F047FB0346002B01D001236E
:1013A0000EE07B680F2B0AD8002279684FF0FF30DF
:1013B00000F01DFB064A7B681360002300E0012358
:1013C00018460837BD4680BD0000002008000020F8
:1013D0000400002080B400AF054B1B781A46054B73
:1013E0001B681344034A136000BFBD4680BC7047AE
:1013F00008000020A400002080B400AF024B1B684E
:101400001846BD4680BC7047A400002080B584B05B
:1014100000AF7860FFF7F0FFB8607B68FB60FB68A7
:10142000B3F1FF3F05D00A4B1B781A46FB68134403
:10143000FB6000BFFFF7E0FF0246BB68D31AFA6803
:101440009A42F7D800BF00BF1037BD4680BD00BF2D
:101450000800002080B586B000AF78600023FB75DF
:1014600000233B610023BB600023FB607B68002BF3
:1014700001D10123BEE07B689B68002B7B689B6ADF
:10148000002B09D17B680022DA627B68002283F896
:1014900024207868FFF736FE786800F0ABF9034641
:1014A000FB757B689B6A03F01003002B40F099806A
:1014B000FB7D002B40F095807B689B6A23F488536A
:1014C00023F0020343F002027B689A627B685A6849
:1014D0007B68DB691A437B681B7B5B001343BA683C
:1014E0001343BB607B689B68B3F5807F03D07B6848
:1014F0009B68012B02D14FF4807300E000233A690E
:1015000013433B617B681B7D012B19D17B681B7BDF
:10151000002B09D17B689B69013B5A033B6913434C
:1015200043F400633B610BE07B689B6A43F020025D
:101530007B689A627B68DB6A43F001027B68DA624F
:101540007B681B685B6823F469417B681B683A69A8
:101550000A435A607B681B689A68284B13407A6874
:101560001268B9680B4393607B689B68B3F5807F12
:1015700003D07B689B68012B04D17B681B69013B0E
:101580001B05FB607B681B68DB6A23F470017B68CA
:101590001B68FA680A43DA627B681B689A68184B12
:1015A0001340BA689A420BD17B680022DA627B68EA
:1015B0009B6A23F0030343F001027B689A6218E000
:1015C0007B689B6A23F0120343F010027B689A62E7
:1015D0007B68DB6A43F001027B68DA620123FB75FA
:1015E00007E07B689B6A43F010027B689A620123E4
:1015F000FB75FB7D18461837BD4680BDFDF7E1FF42
:10160000FE0E1FFF80B485B000AF78603960002304
:10161000FB730023BB607B6893F82430012B01D15E
:101620000223DCE07B68012283F824203B685B68AE
:10163000062B1CD87B681B68596B3B685A6813469D
:101640009B001344053B1F2202FA03F3DB431940BE
:101650003B6818683B685A6813469B001344053B77
:1016600000FA03F27B681B680A435A633CE03B685C
:101670005B680C2B1CD87B681B68196B3B685A682D
:1016800013469B001344233B1F2202FA03F3DB4360
:1016900019403B6818683B685A6813469B0013441E
:1016A000233B00FA03F27B681B680A431A631BE0C2
:1016B0007B681B68D96A3B685A6813469B001344D1
:1016C000413B1F2202FA03F3DB4319403B681868D1
:1016D0003B685A6813469B001344413B00FA03F2EF
:1016E0007B681B680A43DA623B681B68092B1CD9BC
:1016F0007B681B68D9683B681A6813465B00134413
:101700001E3B072202FA03F3DB4319403B6898684B
:101710003B681A6813465B0013441E3B00FA03F251
:101720007B681B680A43DA6019E07B681B681969EB
:101730003B681A6813465B001344072202FA03F35E
:10174000DB4319403B6898683B681A6813465B00A6
:10175000134400FA03F27B681B680A431A613B6872
:101760001B68102B03D03B681B68112B32D17B68A0
:101770001B681D4A934225D17B681B689B6803F454
:101780000003002B26D17B681B689A687B681B6866
:1017900042F400029A603B681B68102B1AD1134B6D
:1017A0001B68134AA2FB03239A0C13469B001344A5
:1017B0005B00BB6002E0BB68013BBB60BB68002B09
:1017C000F9D107E07B689B6A43F020027B689A624C
:1017D0000123FB737B68002283F82420FB7B1846DF
:1017E0001437BD4680BC7047002401400000002033
:1017F00083DE1B4380B584B000AF78600023FB60BC
:101800007B681B689B6803F00103012B2ED17B686A
:101810001B689A687B681B6822F001029A60FFF7D8
:10182000EBFDF8601BE0FFF7E7FD0246FB68D31A0B
:10183000022B14D97B681B689B6803F00103012B02
:101840000DD17B689B6A43F010027B689A627B68CB
:10185000DB6A43F001027B68DA62012307E07B6800
:101860001B689B6803F00103012BDCD000231846A2
:101870001037BD4680BD000080B485B000AF7860F1
:101880007B6803F00703FB600C4BDB68BB60BA6846
:101890004FF6FF031340BB60FB681A02BB6813439B
:1018A00043F0BF6343F40033BB60044ABB68D360BA
:1018B00000BF1437BD4680BC704700BF00ED00E09C
:1018C00080B400AF044BDB681B0A03F00703184623
:1018D000BD4680BC704700BF00ED00E080B483B01F
:1018E00000AF03463960FB7197F90730002B0ADB24
:1018F0003B68DAB20C4997F907301201D2B20B44B7
:1019000083F800230AE03B68DAB20849FB7903F068
:101910000F03043B1201D2B20B441A7600BF0C37FE
:10192000BD4680BC704700BF00E100E000ED00E074
:1019300080B489B000AFF860B9607A60FB6803F0EA
:101940000703FB61FB69C3F10703042B28BF0423D2
:10195000BB61FB690433062B02D9FB69033B00E042
:1019600000237B614FF0FF32BB6902FA03F3DA43D5
:10197000BB681A407B699A404FF0FF317B6901FADE
:1019800003F3D9437B680B40134318462437BD4605
:1019900080BC704780B582B000AF78607B68013B47
:1019A000B3F1807F01D301230FE00A4A7B68013B3A
:1019B00053600F214FF0FF30FFF790FF054B0022DF
:1019C0009A60044B07221A60002318460837BD4668
:1019D00080BD00BF10E000E080B582B000AF78604D
:1019E0007868FFF749FF00BF0837BD4680BD80B566
:1019F00086B000AF0346B9607A60FB7300237B6159
:101A0000FFF75EFF78617A68B9687869FFF790FF41
:101A1000024697F90F3011461846FFF75FFF00BFE7
:101A20001837BD4680BD80B582B000AF7860786859
:101A3000FFF7B0FF034618460837BD4680BD0000DB
:101A400080B48BB000AF7860396000237B620023E4
:101A50003B6269E101227B6A02FA03F3FB613B68A6
:101A60001B68FA691340BB61BA69FB699A4240F08E
:101A700058813B685B689A4A93425ED0984A934289
:101A800075D8984A934258D0964A93426FD8964A4E
:101A9000934252D0944A934269D8944A93424CD08C
:101AA000924A934263D8924A934246D0904A9342D4
:101AB0005DD8122B2AD8122B59D801A252F823F044
:101AC0003B1B0008151B0008271B0008691B0008AA
:101AD0006F1B00086F1B00086F1B00086F1B0008BE
:101AE0006F1B00086F1B00086F1B00086F1B0008AE
:101AF0006F1B00086F1B00086F1B00086F1B00089E
:101B00006F1B00081D1B0008311B0008794A934217
:101B100013D02CE03B68DB683B6229E03B68DB6864
:101B200004333B6224E03B68DB6808333B621FE020
:101B30003B68DB680C333B621AE03B689B68002B18
:101B400002D104233B6213E03B689B68012B05D163
:101B500008233B627B68FA691A6109E008233B624B
:101B60007B68FA695A6103E000233B6200E000BF32
:101B7000BB69FF2B01D87B6801E07B6804337B6184
:101B8000BB69FF2B02D87B6A9B0002E07B6A083BA3
:101B90009B003B617B691A680F213B6901FA03F3E3
:101BA000DB431A40396A3B6901FA03F31A437B6944
:101BB0001A603B685B6803F08053002B00F0B18033
:101BC0004D4B9B694C4A43F0010393614A4B9B691F
:101BD00003F00103BB60BB68484A7B6A9B08023381
:101BE00052F82330FB607B6A03F003039B000F2253
:101BF00002FA03F3DB43FA681340FB607B68404A58
:101C0000934213D07B683F4A93420DD07B683E4A93
:101C1000934207D07B683D4A934201D1032306E0FB
:101C2000042304E0022302E0012300E000237A6A97
:101C300002F0030292009340FA681343FB602F49BD
:101C40007B6A9B080233FA6841F823203B685B6893
:101C500003F48013002B06D02D4B9A682C49BB69E6
:101C600013438B6006E02A4B9A68BB69DB43284923
:101C700013408B603B685B6803F40013002B06D0B5
:101C8000234BDA682249BB691343CB6006E0204B43
:101C9000DA68BB69DB431E491340CB603B685B6875
:101CA00003F40033002B06D0194B5A681849BB695E
:101CB00013434B6006E0164B5A68BB69DB4314497B
:101CC00013404B603B685B6803F48033002B21D0EA
:101CD0000F4B1A680E49BB6913430B6021E000BF2C
:101CE000000032100000311000002210000021100E
:101CF000000012100000111000100240000001400E
:101D000000080140000C0140001001400014014097
:101D1000000401400B4B1A68BB69DB4309491340BF
:101D20000B607B6A01337B623B681A687B6A22FA2C
:101D300003F3002B7FF48EAE00BF00BF2C37BD46EF
:101D400080BC70470004014080B586B000AF786069
:101D50007B68002B01D1012372E27B681B6803F0D2
:101D60000103002B00F08780924B5B6803F00C03AB
:101D7000042B0CD08F4B5B6803F00C03082B12D1A3
:101D80008C4B5B6803F48033B3F5803F0BD1894BF8
:101D90001B6803F40033002B6CD07B685B68002B5E
:101DA00068D101234CE27B685B68B3F5803F06D1C4
:101DB000804B1B687F4A43F4803313602EE07B68BE
:101DC0005B68002B0CD17B4B1B687A4A23F4803371
:101DD0001360784B1B68774A23F4802313601DE05F
:101DE0007B685B68B3F5A02F0CD1724B1B68714AFE
:101DF00043F4802313606F4B1B686E4A43F48033B7
:101E000013600BE06B4B1B686A4A23F4803313604A
:101E1000684B1B68674A23F4802313607B685B6808
:101E2000002B13D0FFF7E8FA386108E0FFF7E4FA77
:101E300002463B69D31A642B01D9032300E25D4BB0
:101E40001B6803F40033002BF0D014E0FFF7D4FA42
:101E5000386108E0FFF7D0FA02463B69D31A642BD9
:101E600001D90323ECE1534B1B6803F40033002B2F
:101E7000F0D100E000BF7B681B6803F00203002B79
:101E800063D04C4B5B6803F00C03002B0BD0494B29
:101E90005B6803F00C03082B1CD1464B5B6803F412
:101EA0008033002B16D1434B1B6803F00203002B39
:101EB00005D07B681B69012B01D00123C0E13D4B9C
:101EC0001B6823F0F8027B685B69DB003949134328
:101ED0000B603AE07B681B69002B20D0364B012257
:101EE0001A60FFF789FA386108E0FFF785FA0246C1
:101EF0003B69D31A022B01D90323A1E12D4B1B68A7
:101F000003F00203002BF0D02A4B1B6823F0F802E9
:101F10007B685B69DB00274913430B6015E0264BA8
:101F200000221A60FFF768FA386108E0FFF764FAE8
:101F300002463B69D31A022B01D9032380E11D4BD2
:101F40001B6803F00203002BF0D17B681B6803F0D1
:101F50000803002B3AD07B689B69002B19D0174BE4
:101F600001221A60FFF748FA386108E0FFF744FAE7
:101F700002463B69D31A022B01D9032360E10D4BC2
:101F80005B6A03F00203002BF0D0012000F09CFA02
:101F90001CE00A4B00221A60FFF72EFA38610FE0AE
:101FA000FFF72AFA02463B69D31A022B08D903230A
:101FB00046E100BF0010024000004242800442425D
:101FC000924B5B6A03F00203002BE9D17B681B682C
:101FD00003F00403002B00F0A6800023FB758B4B5D
:101FE000DB6903F08053002B0DD1884BDB69874AF6
:101FF00043F08053D361854BDB6903F08053BB60B2
:10200000BB680123FB75824B1B6803F48073002BB4
:1020100018D17F4B1B687E4A43F480731360FFF72F
:10202000EBF9386108E0FFF7E7F902463B69D31A9C
:10203000642B01D9032303E1754B1B6803F4807300
:10204000002BF0D07B68DB68012B06D16F4B1B6A3D
:102050006E4A43F0010313622DE07B68DB68002BBE
:102060000CD16A4B1B6A694A23F001031362674B68
:102070001B6A664A23F0040313621CE07B68DB687A
:10208000052B0CD1614B1B6A604A43F004031362B9
:102090005E4B1B6A5D4A43F0010313620BE05B4B2E
:1020A0001B6A5A4A23F001031362584B1B6A574AB2
:1020B00023F0040313627B68DB68002B15D0FFF765
:1020C0009BF938610AE0FFF797F902463B69D31A9A
:1020D00041F28832934201D90323B1E04B4B1B6A92
:1020E00003F00203002BEED014E0FFF785F938610E
:1020F0000AE0FFF781F902463B69D31A41F28832C0
:10210000934201D903239BE0404B1B6A03F0020377
:10211000002BEED1FB7D012B05D13C4BDB693B4A0B
:1021200023F08053D3617B68DB69002B00F087804C
:10213000364B5B6803F00C03082B61D07B68DB69CE
:10214000022B46D1334B00221A60FFF755F9386154
:1021500008E0FFF751F902463B69D31A022B01D977
:1021600003236DE0294B1B6803F00073002BF0D1B3
:102170007B681B6AB3F5803F08D1244B5B6823F46E
:1021800000327B689B68214913434B601F4B5B689F
:1021900023F474127B68196A7B685B6A0B431B49E2
:1021A00013434B601B4B01221A60FFF725F938617E
:1021B00008E0FFF721F902463B69D31A022B01D947
:1021C00003233DE0114B1B6803F00073002BF0D09C
:1021D00035E0104B00221A60FFF70EF9386108E075
:1021E000FFF70AF902463B69D31A022B01D90323F0
:1021F00026E0064B1B6803F00073002BF0D11EE0B5
:102200007B68DB69012B07D1012319E00010024034
:1022100000700040600042420B4B5B68FB60FB6853
:1022200003F480327B681B6A9A4206D1FB6803F490
:1022300070127B685B6A9A4201D0012300E00023A0
:1022400018461837BD4680BD0010024080B584B0E6
:1022500000AF786039607B68002B01D10123D0E0AA
:102260006A4B1B6803F007033A689A4210D9674B20
:102270001B6823F0070265493B6813430B60634BFF
:102280001B6803F007033A689A4201D00123B8E0C3
:102290007B681B6803F00203002B20D07B681B685F
:1022A00003F00403002B05D0594B5B68584A43F4F4
:1022B000E06353607B681B6803F00803002B05D0C4
:1022C000534B5B68524A43F460535360504B5B6816
:1022D00023F0F0027B689B684D4913434B607B6899
:1022E0001B6803F00103002B40D07B685B68012B67
:1022F00007D1474B1B6803F40033002B15D1012392
:102300007FE07B685B68022B07D1414B1B6803F0C1
:102310000073002B09D1012373E03D4B1B6803F0D0
:102320000203002B01D101236BE0394B5B6823F0E2
:1023300003027B685B68364913434B60FFF75CF828
:10234000F8600AE0FFF758F80246FB68D31A41F23A
:102350008832934201D9032353E02D4B5B6803F08D
:102360000C027B685B689B009A42EBD1274B1B6891
:1023700003F007033A689A4210D2244B1B6823F0FB
:10238000070222493B6813430B60204B1B6803F094
:1023900007033A689A4201D0012332E07B681B6848
:1023A00003F00403002B08D0194B5B6823F4E062B0
:1023B0007B68DB68164913434B607B681B6803F03E
:1023C0000803002B09D0124B5B6823F460527B6832
:1023D0001B69DB000E4913434B6000F021F80246F5
:1023E0000B4B5B681B0903F00F030A49CB5C22FA15
:1023F00003F3094A1360094B1B681846FEF7BAFF3E
:10240000002318461037BD4680BD00BF00200240A3
:1024100000100240CC34000800000020040000201E
:1024200080B487B000AF0023FB600023BB600023B3
:102430007B6100237B6000233B611E4B5B68FB607C
:10244000FB6803F00C03042B02D0082B03D027E019
:10245000194B3B6127E0FB689B0C03F00F03174A05
:10246000D35C7B60FB6803F48033002B10D0114BEE
:102470005B685B0C03F00103114AD35CBB607B68B3
:102480000D4A03FB02F2BB68B2FBF3F37B6104E08D
:102490007B680C4A02FB03F37B617B693B6102E0D2
:1024A000054B3B6100BF3B6918461C37BD4680BCED
:1024B000704700BF0010024000127A00DC340008B0
:1024C000EC34000800093D0080B485B000AF7860AE
:1024D0000A4B1B680A4AA2FB03235B0A7A6802FBC9
:1024E00003F3FB6000BFFB685A1EFA60002BF9D1B2
:1024F00000BF00BF1437BD4680BC704700000020FD
:10250000D34D621080B586B000AF786000233B6188
:102510000023FB607B681B6803F00103002B7DD068
:102520000023FB754F4BDB6903F08053002B0DD16B
:102530004C4BDB694B4A43F08053D361494BDB6919
:1025400003F08053BB60BB680123FB75464B1B68DF
:1025500003F48073002B18D1434B1B68424A43F4A9
:1025600080731360FEF748FF386108E0FEF744FF10
:1025700002463B69D31A642B01D903236DE03A4B21
:102580001B6803F48073002BF0D0364B1B6A03F4F6
:102590004073FB60FB68002B2ED07B685B6803F404
:1025A0004073FA689A4227D02E4B1B6A23F440737B
:1025B000FB602E4B01221A602C4B00221A60294A24
:1025C000FB681362FB6803F00103002B14D0FEF7D5
:1025D00013FF38610AE0FEF70FFF02463B69D31A8A
:1025E00041F28832934201D9032336E01D4B1B6A26
:1025F00003F00203002BEED01A4B1B6A23F4407247
:102600007B685B68174913430B62FB7D012B05D187
:10261000144BDB69134A23F08053D3617B681B683A
:1026200003F00203002B08D00E4B5B6823F44042FA
:102630007B689B680B4913434B607B681B6803F006
:102640001003002B08D0074B5B6823F480027B68E3
:10265000DB68044913434B60002318461837BD4616
:1026600080BD00BF001002400070004040044242A4
:1026700080B582B000AF78607B68002B01D1012368
:1026800041E07B6893F83D30DBB2002B06D17B68DC
:10269000002283F83C207868FEF770FD7B680222F8
:1026A00083F83D207B681A687B680433194610461E
:1026B00000F0B2FA7B68012283F846207B68012291
:1026C00083F83E207B68012283F83F207B6801224B
:1026D00083F840207B68012283F841207B68012237
:1026E00083F842207B68012283F843207B68012223
:1026F00083F844207B68012283F845207B6801220F
:1027000083F83D20002318460837BD4680BD80B5BC
:1027100082B000AF78607B68002B01D1012341E0DB
:102720007B6893F83D30DBB2002B06D17B6800223A
:1027300083F83C20786800F039F87B68022283F83F
:102740003D207B681A687B6804331946104600F008
:1027500063FA7B68012283F846207B68012283F8B4
:102760003E207B68012283F83F207B68012283F8AA
:1027700040207B68012283F841207B68012283F896
:1027800042207B68012283F843207B68012283F882
:1027900044207B68012283F845207B68012283F86E
:1027A0003D20002318460837BD4680BD80B483B065
:1027B00000AF786000BF0C37BD4680BC704700009A
:1027C00080B584B000AF786039603B68002B09D1D8
:1027D0007B6893F83E30DBB2012B14BF012300234A
:1027E000DBB222E03B68042B09D17B6893F83F30D1
:1027F000DBB2012B14BF01230023DBB215E03B68E1
:10280000082B09D17B6893F84030DBB2012B14BF51
:1028100001230023DBB208E07B6893F84130DBB290
:10282000012B14BF01230023DBB2002B01D00123B5
:102830005EE03B68002B04D17B68022283F83E20D7
:1028400013E03B68042B04D17B68022283F83F200D
:102850000BE03B68082B04D17B68022283F8402000
:1028600003E07B68022283F841207B681B68012219
:102870003968184600F05CFC7B681B681E4A93426E
:1028800007D17B681B685A6C7B681B6842F4004266
:102890005A647B681B68184A93420ED07B681B6899
:1028A000B3F1804F09D07B681B68144A934204D06F
:1028B0007B681B68124A934211D17B681B689B6836
:1028C00003F00703FB60FB68062B10D07B681B68D6
:1028D0001A687B681B6842F001021A6007E07B6897
:1028E0001B681A687B681B6842F001021A600023AB
:1028F00018461037BD4680BD002C01400004004042
:102900000008004080B586B000AFF860B9607A601A
:102910000023FB75FB6893F83C30012B01D10223A7
:10292000AEE0FB68012283F83C207B680C2B00F2B0
:102930009F8001A252F823F06D290008712A000837
:10294000712A0008712A0008AD290008712A0008C0
:10295000712A0008712A0008EF290008712A00086E
:10296000712A0008712A00082F2A0008FB681B68DA
:10297000B968184600F0BEF9FB681B689A69FB68E5
:102980001B6842F008029A61FB681B689A69FB6841
:102990001B6822F004029A61FB681B689969BB6896
:1029A0001A69FB681B680A439A6164E0FB681B684C
:1029B000B968184600F004FAFB681B689A69FB685E
:1029C0001B6842F400629A61FB681B689A69FB68A5
:1029D0001B6822F480629A61FB681B689969BB6876
:1029E0001B691A02FB681B680A439A6143E0FB6893
:1029F0001B68B968184600F04DFAFB681B68DA6975
:102A0000FB681B6842F00802DA61FB681B68DA6940
:102A1000FB681B6822F00402DA61FB681B68D96955
:102A2000BB681A69FB681B680A43DA6123E0FB682C
:102A30001B68B968184600F097FAFB681B68DA69EA
:102A4000FB681B6842F40062DA61FB681B68DA69A4
:102A5000FB681B6822F48062DA61FB681B68D96935
:102A6000BB681B691A02FB681B680A43DA6102E053
:102A70000123FB7500BFFB68002283F83C20FB7D2F
:102A800018461837BD4680BD80B584B000AF786069
:102A900039600023FB737B6893F83C30012B01D134
:102AA0000223B4E07B68012283F83C207B68022289
:102AB00083F83D207B681B689B68BB60BB6823F084
:102AC0007703BB60BB6823F47F43BB607B681B68F4
:102AD000BA689A603B681B68B3F5005F3ED0B3F5F7
:102AE000005F00F28780B3F5805F00F08680B3F569
:102AF000805F7FD8702B1AD0702B7BD8602B50D082
:102B0000602B77D8502B3CD0502B73D8402B58D00B
:102B1000402B6FD8302B64D0302B6BD8202B60D05B
:102B2000202B67D8002B5CD0102B5AD062E07B683A
:102B300018683B6899683B685A683B68DB6800F036
:102B4000D8FA7B681B689B68BB60BB6843F077035F
:102B5000BB607B681B68BA689A604FE07B68186846
:102B60003B6899683B685A683B68DB6800F0C1FACB
:102B70007B681B689A687B681B6842F480429A6095
:102B80003CE07B6818683B6859683B68DB681A461C
:102B900000F038FA7B681B685021184600F08FFA65
:102BA0002CE07B6818683B6859683B68DB681A460C
:102BB00000F056FA7B681B686021184600F07FFA27
:102BC0001CE07B6818683B6859683B68DB681A46FC
:102BD00000F018FA7B681B684021184600F06FFA75
:102BE0000CE07B681A683B681B681946104600F0C9
:102BF00066FA03E00123FB7300E000BF7B6801225B
:102C000083F83D207B68002283F83C20FB7B18463C
:102C10001037BD4680BD000080B485B000AF78603D
:102C200039607B681B68FB607B682F4A93420BD03E
:102C30007B68B3F1804F07D07B682C4A934203D066
:102C40007B682B4A934208D1FB6823F07003FB603A
:102C50003B685B68FA681343FB607B68224A9342D7
:102C60000BD07B68B3F1804F07D07B681F4A93423B
:102C700003D07B681E4A934208D1FB6823F440735B
:102C8000FB603B68DB68FA681343FB60FB6823F07A
:102C900080023B685B691343FB607B68FA681A60DB
:102CA0003B689A687B68DA623B681A687B689A625C
:102CB0007B680D4A934203D13B681A697B681A63AB
:102CC0007B6801225A617B681B6903F00103002BBA
:102CD00005D07B681B6923F001027B681A6100BF85
:102CE0001437BD4680BC7047002C014000040040F2
:102CF0000008004080B487B000AF786039607B681E
:102D00001B6A7B617B681B6A23F001027B681A6285
:102D10007B685B683B617B689B69FB60FB6823F0B9
:102D20007003FB60FB6823F00303FB603B681B68D8
:102D3000FA681343FB607B6923F002037B613B6805
:102D40009B687A6913437B617B681C4A93420CD170
:102D50007B6923F008037B613B68DB687A69134376
:102D60007B617B6923F004037B617B68134A934298
:102D700011D13B6923F480733B613B6923F40073F9
:102D80003B613B685B693A6913433B613B689B6904
:102D90003A6913433B617B683A695A607B68FA6819
:102DA0009A613B685A687B685A637B687A691A62E1
:102DB00000BF1C37BD4680BC704700BF002C0140DF
:102DC00080B487B000AF786039607B681B6A7B6134
:102DD0007B681B6A23F010027B681A627B685B6861
:102DE0003B617B689B69FB60FB6823F4E043FB600D
:102DF000FB6823F44073FB603B681B681B02FA68A6
:102E00001343FB607B6923F020037B613B689B6875
:102E10001B017A6913437B617B681D4A93420DD184
:102E20007B6923F080037B613B68DB681B017A6967
:102E300013437B617B6923F040037B617B68144A09
:102E4000934213D13B6923F480633B613B6923F4D4
:102E500000633B613B685B699B003A6913433B61DC
:102E60003B689B699B003A6913433B617B683A6905
:102E70005A607B68FA689A613B685A687B689A6313
:102E80007B687A691A6200BF1C37BD4680BC7047F8
:102E9000002C014080B487B000AF786039607B6857
:102EA0001B6A7B617B681B6A23F480727B681A62F1
:102EB0007B685B683B617B68DB69FB60FB6823F0D8
:102EC0007003FB60FB6823F00303FB603B681B6837
:102ED000FA681343FB607B6923F400737B613B68F2
:102EE0009B681B027A6913437B617B681D4A93428E
:102EF0000DD17B6923F400637B613B68DB681B02B7
:102F00007A6913437B617B6923F480637B617B680F
:102F1000144A934213D13B6923F480533B613B69CC
:102F200023F400533B613B685B691B013A6913431F
:102F30003B613B689B691B013A6913433B617B68BA
:102F40003A695A607B68FA68DA613B685A687B685C
:102F5000DA637B687A691A6200BF1C37BD4680BCA1
:102F6000704700BF002C014080B487B000AF78608C
:102F700039607B681B6A3B617B681B6A23F4805263
:102F80007B681A627B685B687B617B68DB69FB60DE
:102F9000FB6823F4E043FB60FB6823F44073FB60B1
:102FA0003B681B681B02FA681343FB603B6923F410
:102FB00000533B613B689B681B033A6913433B61C9
:102FC0007B680F4A934209D17B6923F480437B617C
:102FD0003B685B699B017A6913437B617B687A6913
:102FE0005A607B68FA68DA613B685A687B681A64E1
:102FF0007B683A691A6200BF1C37BD4680BC7047C7
:10300000002C014080B487B000AFF860B9607A60EE
:10301000FB681B6A7B61FB681B6A23F00102FB688B
:103020001A62FB689B693B613B6923F0F0033B61DB
:103030007B681B013A6913433B617B6923F00A03F8
:103040007B617A69BB6813437B61FB683A699A616B
:10305000FB687A691A6200BF1C37BD4680BC7047A6
:1030600080B487B000AFF860B9607A60FB681B6A13
:103070007B61FB681B6A23F01002FB681A62FB6825
:103080009B693B613B6923F470433B617B681B0395
:103090003A6913433B617B6923F0A0037B61BB6802
:1030A0001B017A6913437B61FB683A699A61FB688B
:1030B0007A691A6200BF1C37BD4680BC704780B475
:1030C00085B000AF786039607B689B68FB60FB6807
:1030D00023F07003FB603A68FB68134343F0070377
:1030E000FB607B68FA689A6000BF1437BD4680BCFD
:1030F000704780B487B000AFF860B9607A603B6019
:10310000FB689B687B617B6923F47F437B613B6841
:103110001A027B681A43BB6813437A6913437B61C5
:10312000FB687A699A6000BF1C37BD4680BC704757
:1031300080B487B000AFF860B9607A60BB6803F014
:103140001F03012202FA03F37B61FB681A6A7B69A1
:10315000DB431A40FB681A62FB681A6ABB6803F01B
:103160001F03796801FA03F31A43FB681A6200BF70
:103170001C37BD4680BC704780B584B000AF786016
:1031800039603B68002B09D17B6893F84230DBB291
:10319000012B14BF01230023DBB222E03B68042B88
:1031A00009D17B6893F84330DBB2012B14BF0123B4
:1031B0000023DBB215E03B68082B09D17B6893F84C
:1031C0004430DBB2012B14BF01230023DBB208E043
:1031D0007B6893F84530DBB2012B14BF0123002339
:1031E000DBB2002B01D0012359E03B68002B04D156
:1031F0007B68022283F8422013E03B68042B04D151
:103200007B68022283F843200BE03B68082B04D143
:103210007B68022283F8442003E07B68022283F863
:1032200045207B681B6804223968184600F0F1F8D5
:103230007B681B685A6C7B681B6842F400425A64C6
:103240007B681B68184A93420ED07B681B68B3F1F9
:10325000804F09D07B681B68144A934204D07B6876
:103260001B68134A934211D17B681B689B6803F06B
:103270000703FB60FB68062B10D07B681B681A688D
:103280007B681B6842F001021A6007E07B681B68DC
:103290001A687B681B6842F001021A600023184616
:1032A0001037BD4680BD00BF002C01400004004027
:1032B0000008004080B485B000AF786039607B685A
:1032C00093F83C30012B01D1022346E07B680122B8
:1032D00083F83C207B68022283F83D207B681B68D2
:1032E0005B68FB607B681B689B68BB60FB6823F0C6
:1032F0007003FB603B681B68FA681343FB607B68E4
:103300001B68FA685A607B681B68164A93420ED0A5
:103310007B681B68B3F1804F09D07B681B68124A39
:10332000934204D07B681B68104A93420CD1BB685F
:1033300023F08003BB603B685B68BA681343BB60E3
:103340007B681B68BA689A607B68012283F83D201D
:103350007B68002283F83C20002318461437BD46C2
:1033600080BC7047002C0140000400400008004071
:1033700080B485B000AF786039600023FB607B6863
:1033800093F83C30012B01D102233DE07B68012200
:1033900083F83C20FB6823F0FF023B68DB681343A3
:1033A000FB60FB6823F440723B689B681343FB603F
:1033B000FB6823F480623B685B681343FB60FB6837
:1033C00023F400623B681B681343FB60FB6823F433
:1033D00080523B681B691343FB60FB6823F4005277
:1033E0003B685B691343FB60FB6823F480423B68E6
:1033F000DB691343FB607B681B68FA685A647B686F
:10340000002283F83C20002318461437BD4680BCB8
:10341000704780B487B000AFF860B9607A60BB686D
:1034200003F00F03042202FA03F37B61FB681A6ABC
:103430007B69DB431A40FB681A62FB681A6ABB6847
:1034400003F00F03796801FA03F31A43FB681A6269
:1034500000BF1C37BD4680BC704703460244934200
:1034600000D1704703F8011BF9E7000070B5002692
:103470000C4D0D4C641BA410A64209D100F01AF8A3
:1034800000260A4D0A4C641BA410A64205D170BD4B
:1034900055F8043B98470136EEE755F8043B98474A
:1034A0000136F2E7F0340008F0340008F034000888
:1034B000F4340008F8B500BFF8BC08BC9E4670475D
:0C34C000F8B500BFF8BC08BC9E46704781
:1034CC0000000000000000000102030406070809C8
:1034DC0002030405060708090A0B0C0D0E0F101049
:0434EC0001020000D9
:0434F000350100089A
:0434F40011010008BA
:0C34F80000127A0010000000010000002B
:04000005080012FDE0
:00000001FF
